{
  "_format": "hh-sol-artifact-1",
  "contractName": "TokenMaster",
  "sourceName": "contracts/TokenMaster.sol",
  "abi": [
    {
      "inputs": [
        {
          "internalType": "string",
          "name": "_name",
          "type": "string"
        },
        {
          "internalType": "string",
          "name": "_symbol",
          "type": "string"
        }
      ],
      "stateMutability": "nonpayable",
      "type": "constructor"
    },
    {
      "inputs": [
        {
          "internalType": "address",
          "name": "sender",
          "type": "address"
        },
        {
          "internalType": "uint256",
          "name": "tokenId",
          "type": "uint256"
        },
        {
          "internalType": "address",
          "name": "owner",
          "type": "address"
        }
      ],
      "name": "ERC721IncorrectOwner",
      "type": "error"
    },
    {
      "inputs": [
        {
          "internalType": "address",
          "name": "operator",
          "type": "address"
        },
        {
          "internalType": "uint256",
          "name": "tokenId",
          "type": "uint256"
        }
      ],
      "name": "ERC721InsufficientApproval",
      "type": "error"
    },
    {
      "inputs": [
        {
          "internalType": "address",
          "name": "approver",
          "type": "address"
        }
      ],
      "name": "ERC721InvalidApprover",
      "type": "error"
    },
    {
      "inputs": [
        {
          "internalType": "address",
          "name": "operator",
          "type": "address"
        }
      ],
      "name": "ERC721InvalidOperator",
      "type": "error"
    },
    {
      "inputs": [
        {
          "internalType": "address",
          "name": "owner",
          "type": "address"
        }
      ],
      "name": "ERC721InvalidOwner",
      "type": "error"
    },
    {
      "inputs": [
        {
          "internalType": "address",
          "name": "receiver",
          "type": "address"
        }
      ],
      "name": "ERC721InvalidReceiver",
      "type": "error"
    },
    {
      "inputs": [
        {
          "internalType": "address",
          "name": "sender",
          "type": "address"
        }
      ],
      "name": "ERC721InvalidSender",
      "type": "error"
    },
    {
      "inputs": [
        {
          "internalType": "uint256",
          "name": "tokenId",
          "type": "uint256"
        }
      ],
      "name": "ERC721NonexistentToken",
      "type": "error"
    },
    {
      "anonymous": false,
      "inputs": [
        {
          "indexed": true,
          "internalType": "address",
          "name": "owner",
          "type": "address"
        },
        {
          "indexed": true,
          "internalType": "address",
          "name": "approved",
          "type": "address"
        },
        {
          "indexed": true,
          "internalType": "uint256",
          "name": "tokenId",
          "type": "uint256"
        }
      ],
      "name": "Approval",
      "type": "event"
    },
    {
      "anonymous": false,
      "inputs": [
        {
          "indexed": true,
          "internalType": "address",
          "name": "owner",
          "type": "address"
        },
        {
          "indexed": true,
          "internalType": "address",
          "name": "operator",
          "type": "address"
        },
        {
          "indexed": false,
          "internalType": "bool",
          "name": "approved",
          "type": "bool"
        }
      ],
      "name": "ApprovalForAll",
      "type": "event"
    },
    {
      "anonymous": false,
      "inputs": [
        {
          "indexed": true,
          "internalType": "address",
          "name": "from",
          "type": "address"
        },
        {
          "indexed": true,
          "internalType": "address",
          "name": "to",
          "type": "address"
        },
        {
          "indexed": true,
          "internalType": "uint256",
          "name": "tokenId",
          "type": "uint256"
        }
      ],
      "name": "Transfer",
      "type": "event"
    },
    {
      "inputs": [
        {
          "internalType": "address",
          "name": "to",
          "type": "address"
        },
        {
          "internalType": "uint256",
          "name": "tokenId",
          "type": "uint256"
        }
      ],
      "name": "approve",
      "outputs": [],
      "stateMutability": "nonpayable",
      "type": "function"
    },
    {
      "inputs": [
        {
          "internalType": "address",
          "name": "owner",
          "type": "address"
        }
      ],
      "name": "balanceOf",
      "outputs": [
        {
          "internalType": "uint256",
          "name": "",
          "type": "uint256"
        }
      ],
      "stateMutability": "view",
      "type": "function"
    },
    {
      "inputs": [
        {
          "internalType": "uint256",
          "name": "tokenId",
          "type": "uint256"
        }
      ],
      "name": "getApproved",
      "outputs": [
        {
          "internalType": "address",
          "name": "",
          "type": "address"
        }
      ],
      "stateMutability": "view",
      "type": "function"
    },
    {
      "inputs": [
        {
          "internalType": "uint256",
          "name": "_id",
          "type": "uint256"
        }
      ],
      "name": "getOccasion",
      "outputs": [
        {
          "components": [
            {
              "internalType": "uint256",
              "name": "id",
              "type": "uint256"
            },
            {
              "internalType": "string",
              "name": "name",
              "type": "string"
            },
            {
              "internalType": "uint256",
              "name": "cost",
              "type": "uint256"
            },
            {
              "internalType": "uint256",
              "name": "tickets",
              "type": "uint256"
            },
            {
              "internalType": "uint256",
              "name": "maxTickets",
              "type": "uint256"
            },
            {
              "internalType": "string",
              "name": "date",
              "type": "string"
            },
            {
              "internalType": "string",
              "name": "time",
              "type": "string"
            },
            {
              "internalType": "string",
              "name": "location",
              "type": "string"
            },
            {
              "internalType": "string",
              "name": "category",
              "type": "string"
            }
          ],
          "internalType": "struct TokenMaster.Occasion",
          "name": "",
          "type": "tuple"
        }
      ],
      "stateMutability": "view",
      "type": "function"
    },
    {
      "inputs": [
        {
          "internalType": "uint256",
          "name": "_id",
          "type": "uint256"
        }
      ],
      "name": "getSeatsTaken",
      "outputs": [
        {
          "internalType": "uint256[]",
          "name": "",
          "type": "uint256[]"
        }
      ],
      "stateMutability": "view",
      "type": "function"
    },
    {
      "inputs": [
        {
          "internalType": "uint256",
          "name": "",
          "type": "uint256"
        },
        {
          "internalType": "address",
          "name": "",
          "type": "address"
        }
      ],
      "name": "hasBought",
      "outputs": [
        {
          "internalType": "bool",
          "name": "",
          "type": "bool"
        }
      ],
      "stateMutability": "view",
      "type": "function"
    },
    {
      "inputs": [
        {
          "internalType": "address",
          "name": "owner",
          "type": "address"
        },
        {
          "internalType": "address",
          "name": "operator",
          "type": "address"
        }
      ],
      "name": "isApprovedForAll",
      "outputs": [
        {
          "internalType": "bool",
          "name": "",
          "type": "bool"
        }
      ],
      "stateMutability": "view",
      "type": "function"
    },
    {
      "inputs": [
        {
          "internalType": "string",
          "name": "_name",
          "type": "string"
        },
        {
          "internalType": "uint256",
          "name": "_cost",
          "type": "uint256"
        },
        {
          "internalType": "uint256",
          "name": "_maxTickets",
          "type": "uint256"
        },
        {
          "internalType": "string",
          "name": "_date",
          "type": "string"
        },
        {
          "internalType": "string",
          "name": "_time",
          "type": "string"
        },
        {
          "internalType": "string",
          "name": "_location",
          "type": "string"
        },
        {
          "internalType": "string",
          "name": "_category",
          "type": "string"
        }
      ],
      "name": "list",
      "outputs": [],
      "stateMutability": "nonpayable",
      "type": "function"
    },
    {
      "inputs": [
        {
          "internalType": "uint256",
          "name": "_id",
          "type": "uint256"
        },
        {
          "internalType": "uint256",
          "name": "_seat",
          "type": "uint256"
        }
      ],
      "name": "mint",
      "outputs": [],
      "stateMutability": "payable",
      "type": "function"
    },
    {
      "inputs": [],
      "name": "name",
      "outputs": [
        {
          "internalType": "string",
          "name": "",
          "type": "string"
        }
      ],
      "stateMutability": "view",
      "type": "function"
    },
    {
      "inputs": [
        {
          "internalType": "uint256",
          "name": "",
          "type": "uint256"
        }
      ],
      "name": "occasionBalances",
      "outputs": [
        {
          "internalType": "uint256",
          "name": "",
          "type": "uint256"
        }
      ],
      "stateMutability": "view",
      "type": "function"
    },
    {
      "inputs": [
        {
          "internalType": "uint256",
          "name": "",
          "type": "uint256"
        }
      ],
      "name": "occasionCreators",
      "outputs": [
        {
          "internalType": "address",
          "name": "",
          "type": "address"
        }
      ],
      "stateMutability": "view",
      "type": "function"
    },
    {
      "inputs": [
        {
          "internalType": "uint256",
          "name": "",
          "type": "uint256"
        }
      ],
      "name": "occasions",
      "outputs": [
        {
          "internalType": "uint256",
          "name": "id",
          "type": "uint256"
        },
        {
          "internalType": "string",
          "name": "name",
          "type": "string"
        },
        {
          "internalType": "uint256",
          "name": "cost",
          "type": "uint256"
        },
        {
          "internalType": "uint256",
          "name": "tickets",
          "type": "uint256"
        },
        {
          "internalType": "uint256",
          "name": "maxTickets",
          "type": "uint256"
        },
        {
          "internalType": "string",
          "name": "date",
          "type": "string"
        },
        {
          "internalType": "string",
          "name": "time",
          "type": "string"
        },
        {
          "internalType": "string",
          "name": "location",
          "type": "string"
        },
        {
          "internalType": "string",
          "name": "category",
          "type": "string"
        }
      ],
      "stateMutability": "view",
      "type": "function"
    },
    {
      "inputs": [],
      "name": "owner",
      "outputs": [
        {
          "internalType": "address",
          "name": "",
          "type": "address"
        }
      ],
      "stateMutability": "view",
      "type": "function"
    },
    {
      "inputs": [
        {
          "internalType": "uint256",
          "name": "tokenId",
          "type": "uint256"
        }
      ],
      "name": "ownerOf",
      "outputs": [
        {
          "internalType": "address",
          "name": "",
          "type": "address"
        }
      ],
      "stateMutability": "view",
      "type": "function"
    },
    {
      "inputs": [
        {
          "internalType": "address",
          "name": "from",
          "type": "address"
        },
        {
          "internalType": "address",
          "name": "to",
          "type": "address"
        },
        {
          "internalType": "uint256",
          "name": "tokenId",
          "type": "uint256"
        }
      ],
      "name": "safeTransferFrom",
      "outputs": [],
      "stateMutability": "nonpayable",
      "type": "function"
    },
    {
      "inputs": [
        {
          "internalType": "address",
          "name": "from",
          "type": "address"
        },
        {
          "internalType": "address",
          "name": "to",
          "type": "address"
        },
        {
          "internalType": "uint256",
          "name": "tokenId",
          "type": "uint256"
        },
        {
          "internalType": "bytes",
          "name": "data",
          "type": "bytes"
        }
      ],
      "name": "safeTransferFrom",
      "outputs": [],
      "stateMutability": "nonpayable",
      "type": "function"
    },
    {
      "inputs": [
        {
          "internalType": "uint256",
          "name": "",
          "type": "uint256"
        },
        {
          "internalType": "uint256",
          "name": "",
          "type": "uint256"
        }
      ],
      "name": "seatTaken",
      "outputs": [
        {
          "internalType": "address",
          "name": "",
          "type": "address"
        }
      ],
      "stateMutability": "view",
      "type": "function"
    },
    {
      "inputs": [
        {
          "internalType": "address",
          "name": "operator",
          "type": "address"
        },
        {
          "internalType": "bool",
          "name": "approved",
          "type": "bool"
        }
      ],
      "name": "setApprovalForAll",
      "outputs": [],
      "stateMutability": "nonpayable",
      "type": "function"
    },
    {
      "inputs": [
        {
          "internalType": "bytes4",
          "name": "interfaceId",
          "type": "bytes4"
        }
      ],
      "name": "supportsInterface",
      "outputs": [
        {
          "internalType": "bool",
          "name": "",
          "type": "bool"
        }
      ],
      "stateMutability": "view",
      "type": "function"
    },
    {
      "inputs": [],
      "name": "symbol",
      "outputs": [
        {
          "internalType": "string",
          "name": "",
          "type": "string"
        }
      ],
      "stateMutability": "view",
      "type": "function"
    },
    {
      "inputs": [
        {
          "internalType": "uint256",
          "name": "tokenId",
          "type": "uint256"
        }
      ],
      "name": "tokenURI",
      "outputs": [
        {
          "internalType": "string",
          "name": "",
          "type": "string"
        }
      ],
      "stateMutability": "view",
      "type": "function"
    },
    {
      "inputs": [],
      "name": "totalOccasions",
      "outputs": [
        {
          "internalType": "uint256",
          "name": "",
          "type": "uint256"
        }
      ],
      "stateMutability": "view",
      "type": "function"
    },
    {
      "inputs": [],
      "name": "totalSupply",
      "outputs": [
        {
          "internalType": "uint256",
          "name": "",
          "type": "uint256"
        }
      ],
      "stateMutability": "view",
      "type": "function"
    },
    {
      "inputs": [
        {
          "internalType": "address",
          "name": "from",
          "type": "address"
        },
        {
          "internalType": "address",
          "name": "to",
          "type": "address"
        },
        {
          "internalType": "uint256",
          "name": "tokenId",
          "type": "uint256"
        }
      ],
      "name": "transferFrom",
      "outputs": [],
      "stateMutability": "nonpayable",
      "type": "function"
    },
    {
      "inputs": [
        {
          "internalType": "uint256",
          "name": "_id",
          "type": "uint256"
        }
      ],
      "name": "withdrawFunds",
      "outputs": [],
      "stateMutability": "nonpayable",
      "type": "function"
    }
  ],
  "bytecode": "0x608060405234801561001057600080fd5b50604051613eee380380613eee83398181016040528101906100329190610213565b8181816000908161004391906104ac565b50806001908161005391906104ac565b50505033600660006101000a81548173ffffffffffffffffffffffffffffffffffffffff021916908373ffffffffffffffffffffffffffffffffffffffff160217905550505061057e565b6000604051905090565b600080fd5b600080fd5b600080fd5b600080fd5b6000601f19601f8301169050919050565b7f4e487b7100000000000000000000000000000000000000000000000000000000600052604160045260246000fd5b610105826100bc565b810181811067ffffffffffffffff82111715610124576101236100cd565b5b80604052505050565b600061013761009e565b905061014382826100fc565b919050565b600067ffffffffffffffff821115610163576101626100cd565b5b61016c826100bc565b9050602081019050919050565b60005b8381101561019757808201518184015260208101905061017c565b60008484015250505050565b60006101b66101b184610148565b61012d565b9050828152602081018484840111156101d2576101d16100b7565b5b6101dd848285610179565b509392505050565b600082601f8301126101fa576101f96100b2565b5b815161020a8482602086016101a3565b91505092915050565b6000806040838503121561022a576102296100a8565b5b600083015167ffffffffffffffff811115610248576102476100ad565b5b610254858286016101e5565b925050602083015167ffffffffffffffff811115610275576102746100ad565b5b610281858286016101e5565b9150509250929050565b600081519050919050565b7f4e487b7100000000000000000000000000000000000000000000000000000000600052602260045260246000fd5b600060028204905060018216806102dd57607f821691505b6020821081036102f0576102ef610296565b5b50919050565b60008190508160005260206000209050919050565b60006020601f8301049050919050565b600082821b905092915050565b6000600883026103587fffffffffffffffffffffffffffffffffffffffffffffffffffffffffffffffff8261031b565b610362868361031b565b95508019841693508086168417925050509392505050565b6000819050919050565b6000819050919050565b60006103a96103a461039f8461037a565b610384565b61037a565b9050919050565b6000819050919050565b6103c38361038e565b6103d76103cf826103b0565b848454610328565b825550505050565b600090565b6103ec6103df565b6103f78184846103ba565b505050565b5b8181101561041b576104106000826103e4565b6001810190506103fd565b5050565b601f82111561046057610431816102f6565b61043a8461030b565b81016020851015610449578190505b61045d6104558561030b565b8301826103fc565b50505b505050565b600082821c905092915050565b600061048360001984600802610465565b1980831691505092915050565b600061049c8383610472565b9150826002028217905092915050565b6104b58261028b565b67ffffffffffffffff8111156104ce576104cd6100cd565b5b6104d882546102c5565b6104e382828561041f565b600060209050601f8311600181146105165760008415610504578287015190505b61050e8582610490565b865550610576565b601f198416610524866102f6565b60005b8281101561054c57848901518255600182019150602085019450602081019050610527565b868310156105695784890151610565601f891682610472565b8355505b6001600288020188555050505b505050505050565b6139618061058d6000396000f3fe6080604052600436106101815760003560e01c806374bc8656116100d1578063af296da11161008a578063c87b56dd11610064578063c87b56dd146105c5578063e985e9c514610602578063f35e55651461063f578063f99ffacc1461067c57610181565b8063af296da114610536578063afb5604e14610573578063b88d4fde1461059c57610181565b806374bc8656146104125780638da5cb5b1461044f578063953865c11461047a57806395d89b41146104a55780639cb04aef146104d0578063a22cb4651461050d57610181565b806318160ddd1161013e57806342842e0e1161011857806342842e0e1461032a57806361a5672d146103535780636352211e1461039857806370a08231146103d557610181565b806318160ddd146102ba5780631b2ef1ca146102e557806323b872dd1461030157610181565b806301ffc9a71461018657806306fdde03146101c3578063081812fc146101ee578063095ea7b31461022b5780630ef7ec7414610254578063155dd5ee14610291575b600080fd5b34801561019257600080fd5b506101ad60048036038101906101a89190612772565b6106b9565b6040516101ba91906127ba565b60405180910390f35b3480156101cf57600080fd5b506101d861079b565b6040516101e59190612865565b60405180910390f35b3480156101fa57600080fd5b50610215600480360381019061021091906128bd565b61082d565b604051610222919061292b565b60405180910390f35b34801561023757600080fd5b50610252600480360381019061024d9190612972565b610849565b005b34801561026057600080fd5b5061027b600480360381019061027691906128bd565b61085f565b6040516102889190612a70565b60405180910390f35b34801561029d57600080fd5b506102b860048036038101906102b391906128bd565b6108ca565b005b3480156102c657600080fd5b506102cf610a90565b6040516102dc9190612aa1565b60405180910390f35b6102ff60048036038101906102fa9190612abc565b610a96565b005b34801561030d57600080fd5b5061032860048036038101906103239190612afc565b610d11565b005b34801561033657600080fd5b50610351600480360381019061034c9190612afc565b610e13565b005b34801561035f57600080fd5b5061037a600480360381019061037591906128bd565b610e33565b60405161038f99989796959493929190612b4f565b60405180910390f35b3480156103a457600080fd5b506103bf60048036038101906103ba91906128bd565b611129565b6040516103cc919061292b565b60405180910390f35b3480156103e157600080fd5b506103fc60048036038101906103f79190612bff565b61113b565b6040516104099190612aa1565b60405180910390f35b34801561041e57600080fd5b50610439600480360381019061043491906128bd565b6111f5565b6040516104469190612d57565b60405180910390f35b34801561045b57600080fd5b50610464611525565b604051610471919061292b565b60405180910390f35b34801561048657600080fd5b5061048f61154b565b60405161049c9190612aa1565b60405180910390f35b3480156104b157600080fd5b506104ba611551565b6040516104c79190612865565b60405180910390f35b3480156104dc57600080fd5b506104f760048036038101906104f29190612d79565b6115e3565b60405161050491906127ba565b60405180910390f35b34801561051957600080fd5b50610534600480360381019061052f9190612de5565b611612565b005b34801561054257600080fd5b5061055d60048036038101906105589190612abc565b611628565b60405161056a919061292b565b60405180910390f35b34801561057f57600080fd5b5061059a60048036038101906105959190612f5a565b61166a565b005b3480156105a857600080fd5b506105c360048036038101906105be9190613129565b6117d0565b005b3480156105d157600080fd5b506105ec60048036038101906105e791906128bd565b6117f5565b6040516105f99190612865565b60405180910390f35b34801561060e57600080fd5b50610629600480360381019061062491906131ac565b61185e565b60405161063691906127ba565b60405180910390f35b34801561064b57600080fd5b50610666600480360381019061066191906128bd565b6118f2565b6040516106739190612aa1565b60405180910390f35b34801561068857600080fd5b506106a3600480360381019061069e91906128bd565b61190a565b6040516106b0919061292b565b60405180910390f35b60007f80ac58cd000000000000000000000000000000000000000000000000000000007bffffffffffffffffffffffffffffffffffffffffffffffffffffffff1916827bffffffffffffffffffffffffffffffffffffffffffffffffffffffff1916148061078457507f5b5e139f000000000000000000000000000000000000000000000000000000007bffffffffffffffffffffffffffffffffffffffffffffffffffffffff1916827bffffffffffffffffffffffffffffffffffffffffffffffffffffffff1916145b8061079457506107938261193d565b5b9050919050565b6060600080546107aa9061321b565b80601f01602080910402602001604051908101604052809291908181526020018280546107d69061321b565b80156108235780601f106107f857610100808354040283529160200191610823565b820191906000526020600020905b81548152906001019060200180831161080657829003601f168201915b5050505050905090565b6000610838826119a7565b5061084282611a2f565b9050919050565b61085b8282610856611a6c565b611a74565b5050565b6060600c60008381526020019081526020016000208054806020026020016040519081016040528092919081815260200182805480156108be57602002820191906000526020600020905b8154815260200190600101908083116108aa575b50505050509050919050565b600d600082815260200190815260200160002060009054906101000a900473ffffffffffffffffffffffffffffffffffffffff1673ffffffffffffffffffffffffffffffffffffffff163373ffffffffffffffffffffffffffffffffffffffff161461096b576040517f08c379a000000000000000000000000000000000000000000000000000000000815260040161096290613298565b60405180910390fd5b6000600e6000838152602001908152602001600020549050600081116109c6576040517f08c379a00000000000000000000000000000000000000000000000000000000081526004016109bd9061332a565b60405180910390fd5b6000600e60008481526020019081526020016000208190555060003373ffffffffffffffffffffffffffffffffffffffff1682604051610a059061337b565b60006040518083038185875af1925050503d8060008114610a42576040519150601f19603f3d011682016040523d82523d6000602084013e610a47565b606091505b5050905080610a8b576040517f08c379a0000000000000000000000000000000000000000000000000000000008152600401610a82906133dc565b60405180910390fd5b505050565b60085481565b60008203610aa357600080fd5b600754821115610ab257600080fd5b6009600083815260200190815260200160002060020154341015610ad557600080fd5b600073ffffffffffffffffffffffffffffffffffffffff16600b6000848152602001908152602001600020600083815260200190815260200160002060009054906101000a900473ffffffffffffffffffffffffffffffffffffffff1673ffffffffffffffffffffffffffffffffffffffff1614610b5257600080fd5b6009600083815260200190815260200160002060040154811115610b7557600080fd5b6001600960008481526020019081526020016000206003016000828254610b9c919061342b565b925050819055506001600a600084815260200190815260200160002060003373ffffffffffffffffffffffffffffffffffffffff1673ffffffffffffffffffffffffffffffffffffffff16815260200190815260200160002060006101000a81548160ff02191690831515021790555033600b6000848152602001908152602001600020600083815260200190815260200160002060006101000a81548173ffffffffffffffffffffffffffffffffffffffff021916908373ffffffffffffffffffffffffffffffffffffffff160217905550600c60008381526020019081526020016000208190806001815401808255809150506001900390600052602060002001600090919091909150556009600083815260200190815260200160002060020154600e60008481526020019081526020016000206000828254610ce2919061345f565b9250508190555060086000815480929190610cfc90613493565b9190505550610d0d33600854611a86565b5050565b600073ffffffffffffffffffffffffffffffffffffffff168273ffffffffffffffffffffffffffffffffffffffff1603610d835760006040517f64a0ae92000000000000000000000000000000000000000000000000000000008152600401610d7a919061292b565b60405180910390fd5b6000610d978383610d92611a6c565b611aa4565b90508373ffffffffffffffffffffffffffffffffffffffff168173ffffffffffffffffffffffffffffffffffffffff1614610e0d578382826040517f64283d7b000000000000000000000000000000000000000000000000000000008152600401610e04939291906134db565b60405180910390fd5b50505050565b610e2e838383604051806020016040528060008152506117d0565b505050565b6009602052806000526040600020600091509050806000015490806001018054610e5c9061321b565b80601f0160208091040260200160405190810160405280929190818152602001828054610e889061321b565b8015610ed55780601f10610eaa57610100808354040283529160200191610ed5565b820191906000526020600020905b815481529060010190602001808311610eb857829003601f168201915b505050505090806002015490806003015490806004015490806005018054610efc9061321b565b80601f0160208091040260200160405190810160405280929190818152602001828054610f289061321b565b8015610f755780601f10610f4a57610100808354040283529160200191610f75565b820191906000526020600020905b815481529060010190602001808311610f5857829003601f168201915b505050505090806006018054610f8a9061321b565b80601f0160208091040260200160405190810160405280929190818152602001828054610fb69061321b565b80156110035780601f10610fd857610100808354040283529160200191611003565b820191906000526020600020905b815481529060010190602001808311610fe657829003601f168201915b5050505050908060070180546110189061321b565b80601f01602080910402602001604051908101604052809291908181526020018280546110449061321b565b80156110915780601f1061106657610100808354040283529160200191611091565b820191906000526020600020905b81548152906001019060200180831161107457829003601f168201915b5050505050908060080180546110a69061321b565b80601f01602080910402602001604051908101604052809291908181526020018280546110d29061321b565b801561111f5780601f106110f45761010080835404028352916020019161111f565b820191906000526020600020905b81548152906001019060200180831161110257829003601f168201915b5050505050905089565b6000611134826119a7565b9050919050565b60008073ffffffffffffffffffffffffffffffffffffffff168273ffffffffffffffffffffffffffffffffffffffff16036111ae5760006040517f89c62b640000000000000000000000000000000000000000000000000000000081526004016111a5919061292b565b60405180910390fd5b600360008373ffffffffffffffffffffffffffffffffffffffff1673ffffffffffffffffffffffffffffffffffffffff168152602001908152602001600020549050919050565b6111fd6126ba565b6009600083815260200190815260200160002060405180610120016040529081600082015481526020016001820180546112369061321b565b80601f01602080910402602001604051908101604052809291908181526020018280546112629061321b565b80156112af5780601f10611284576101008083540402835291602001916112af565b820191906000526020600020905b81548152906001019060200180831161129257829003601f168201915b505050505081526020016002820154815260200160038201548152602001600482015481526020016005820180546112e69061321b565b80601f01602080910402602001604051908101604052809291908181526020018280546113129061321b565b801561135f5780601f106113345761010080835404028352916020019161135f565b820191906000526020600020905b81548152906001019060200180831161134257829003601f168201915b505050505081526020016006820180546113789061321b565b80601f01602080910402602001604051908101604052809291908181526020018280546113a49061321b565b80156113f15780601f106113c6576101008083540402835291602001916113f1565b820191906000526020600020905b8154815290600101906020018083116113d457829003601f168201915b5050505050815260200160078201805461140a9061321b565b80601f01602080910402602001604051908101604052809291908181526020018280546114369061321b565b80156114835780601f1061145857610100808354040283529160200191611483565b820191906000526020600020905b81548152906001019060200180831161146657829003601f168201915b5050505050815260200160088201805461149c9061321b565b80601f01602080910402602001604051908101604052809291908181526020018280546114c89061321b565b80156115155780601f106114ea57610100808354040283529160200191611515565b820191906000526020600020905b8154815290600101906020018083116114f857829003601f168201915b5050505050815250509050919050565b600660009054906101000a900473ffffffffffffffffffffffffffffffffffffffff1681565b60075481565b6060600180546115609061321b565b80601f016020809104026020016040519081016040528092919081815260200182805461158c9061321b565b80156115d95780601f106115ae576101008083540402835291602001916115d9565b820191906000526020600020905b8154815290600101906020018083116115bc57829003601f168201915b5050505050905090565b600a6020528160005260406000206020528060005260406000206000915091509054906101000a900460ff1681565b61162461161d611a6c565b8383611cbe565b5050565b600b6020528160005260406000206020528060005260406000206000915091509054906101000a900473ffffffffffffffffffffffffffffffffffffffff1681565b6007600081548092919061167d90613493565b91905055506040518061012001604052806007548152602001888152602001878152602001868152602001868152602001858152602001848152602001838152602001828152506009600060075481526020019081526020016000206000820151816000015560208201518160010190816116f891906136be565b5060408201518160020155606082015181600301556080820151816004015560a082015181600501908161172c91906136be565b5060c082015181600601908161174291906136be565b5060e082015181600701908161175891906136be565b5061010082015181600801908161176f91906136be565b5090505033600d6000600754815260200190815260200160002060006101000a81548173ffffffffffffffffffffffffffffffffffffffff021916908373ffffffffffffffffffffffffffffffffffffffff16021790555050505050505050565b6117db848484610d11565b6117ef6117e6611a6c565b85858585611e2d565b50505050565b6060611800826119a7565b50600061180b611fde565b9050600081511161182b5760405180602001604052806000815250611856565b8061183584611ff5565b6040516020016118469291906137cc565b6040516020818303038152906040525b915050919050565b6000600560008473ffffffffffffffffffffffffffffffffffffffff1673ffffffffffffffffffffffffffffffffffffffff16815260200190815260200160002060008373ffffffffffffffffffffffffffffffffffffffff1673ffffffffffffffffffffffffffffffffffffffff16815260200190815260200160002060009054906101000a900460ff16905092915050565b600e6020528060005260406000206000915090505481565b600d6020528060005260406000206000915054906101000a900473ffffffffffffffffffffffffffffffffffffffff1681565b60007f01ffc9a7000000000000000000000000000000000000000000000000000000007bffffffffffffffffffffffffffffffffffffffffffffffffffffffff1916827bffffffffffffffffffffffffffffffffffffffffffffffffffffffff1916149050919050565b6000806119b3836120c3565b9050600073ffffffffffffffffffffffffffffffffffffffff168173ffffffffffffffffffffffffffffffffffffffff1603611a2657826040517f7e273289000000000000000000000000000000000000000000000000000000008152600401611a1d9190612aa1565b60405180910390fd5b80915050919050565b60006004600083815260200190815260200160002060009054906101000a900473ffffffffffffffffffffffffffffffffffffffff169050919050565b600033905090565b611a818383836001612100565b505050565b611aa08282604051806020016040528060008152506122c5565b5050565b600080611ab0846120c3565b9050600073ffffffffffffffffffffffffffffffffffffffff168373ffffffffffffffffffffffffffffffffffffffff1614611af257611af18184866122e9565b5b600073ffffffffffffffffffffffffffffffffffffffff168173ffffffffffffffffffffffffffffffffffffffff1614611b8357611b34600085600080612100565b6001600360008373ffffffffffffffffffffffffffffffffffffffff1673ffffffffffffffffffffffffffffffffffffffff168152602001908152602001600020600082825403925050819055505b600073ffffffffffffffffffffffffffffffffffffffff168573ffffffffffffffffffffffffffffffffffffffff1614611c06576001600360008773ffffffffffffffffffffffffffffffffffffffff1673ffffffffffffffffffffffffffffffffffffffff168152602001908152602001600020600082825401925050819055505b846002600086815260200190815260200160002060006101000a81548173ffffffffffffffffffffffffffffffffffffffff021916908373ffffffffffffffffffffffffffffffffffffffff160217905550838573ffffffffffffffffffffffffffffffffffffffff168273ffffffffffffffffffffffffffffffffffffffff167fddf252ad1be2c89b69c2b068fc378daa952ba7f163c4a11628f55a4df523b3ef60405160405180910390a4809150509392505050565b600073ffffffffffffffffffffffffffffffffffffffff168273ffffffffffffffffffffffffffffffffffffffff1603611d2f57816040517f5b08ba18000000000000000000000000000000000000000000000000000000008152600401611d26919061292b565b60405180910390fd5b80600560008573ffffffffffffffffffffffffffffffffffffffff1673ffffffffffffffffffffffffffffffffffffffff16815260200190815260200160002060008473ffffffffffffffffffffffffffffffffffffffff1673ffffffffffffffffffffffffffffffffffffffff16815260200190815260200160002060006101000a81548160ff0219169083151502179055508173ffffffffffffffffffffffffffffffffffffffff168373ffffffffffffffffffffffffffffffffffffffff167f17307eab39ab6107e8899845ad3d59bd9653f200f220920489ca2b5937696c3183604051611e2091906127ba565b60405180910390a3505050565b60008373ffffffffffffffffffffffffffffffffffffffff163b1115611fd7578273ffffffffffffffffffffffffffffffffffffffff1663150b7a02868685856040518563ffffffff1660e01b8152600401611e8c9493929190613845565b6020604051808303816000875af1925050508015611ec857506040513d601f19601f82011682018060405250810190611ec591906138a6565b60015b611f4c573d8060008114611ef8576040519150601f19603f3d011682016040523d82523d6000602084013e611efd565b606091505b506000815103611f4457836040517f64a0ae92000000000000000000000000000000000000000000000000000000008152600401611f3b919061292b565b60405180910390fd5b805181602001fd5b63150b7a0260e01b7bffffffffffffffffffffffffffffffffffffffffffffffffffffffff1916817bffffffffffffffffffffffffffffffffffffffffffffffffffffffff191614611fd557836040517f64a0ae92000000000000000000000000000000000000000000000000000000008152600401611fcc919061292b565b60405180910390fd5b505b5050505050565b606060405180602001604052806000815250905090565b606060006001612004846123ad565b01905060008167ffffffffffffffff81111561202357612022612e2f565b5b6040519080825280601f01601f1916602001820160405280156120555781602001600182028036833780820191505090505b509050600082602001820190505b6001156120b8578080600190039150507f3031323334353637383961626364656600000000000000000000000000000000600a86061a8153600a85816120ac576120ab6138d3565b5b04945060008503612063575b819350505050919050565b60006002600083815260200190815260200160002060009054906101000a900473ffffffffffffffffffffffffffffffffffffffff169050919050565b80806121395750600073ffffffffffffffffffffffffffffffffffffffff168273ffffffffffffffffffffffffffffffffffffffff1614155b1561226d576000612149846119a7565b9050600073ffffffffffffffffffffffffffffffffffffffff168373ffffffffffffffffffffffffffffffffffffffff16141580156121b457508273ffffffffffffffffffffffffffffffffffffffff168173ffffffffffffffffffffffffffffffffffffffff1614155b80156121c757506121c5818461185e565b155b1561220957826040517fa9fbf51f000000000000000000000000000000000000000000000000000000008152600401612200919061292b565b60405180910390fd5b811561226b57838573ffffffffffffffffffffffffffffffffffffffff168273ffffffffffffffffffffffffffffffffffffffff167f8c5be1e5ebec7d5bd14f71427d1e84f3dd0314c0f7b2291e5b200ac8c7c3b92560405160405180910390a45b505b836004600085815260200190815260200160002060006101000a81548173ffffffffffffffffffffffffffffffffffffffff021916908373ffffffffffffffffffffffffffffffffffffffff16021790555050505050565b6122cf8383612500565b6122e46122da611a6c565b6000858585611e2d565b505050565b6122f48383836125f9565b6123a857600073ffffffffffffffffffffffffffffffffffffffff168373ffffffffffffffffffffffffffffffffffffffff160361236957806040517f7e2732890000000000000000000000000000000000000000000000000000000081526004016123609190612aa1565b60405180910390fd5b81816040517f177e802f00000000000000000000000000000000000000000000000000000000815260040161239f929190613902565b60405180910390fd5b505050565b600080600090507a184f03e93ff9f4daa797ed6e38ed64bf6a1f010000000000000000831061240b577a184f03e93ff9f4daa797ed6e38ed64bf6a1f0100000000000000008381612401576124006138d3565b5b0492506040810190505b6d04ee2d6d415b85acef81000000008310612448576d04ee2d6d415b85acef8100000000838161243e5761243d6138d3565b5b0492506020810190505b662386f26fc10000831061247757662386f26fc10000838161246d5761246c6138d3565b5b0492506010810190505b6305f5e10083106124a0576305f5e1008381612496576124956138d3565b5b0492506008810190505b61271083106124c55761271083816124bb576124ba6138d3565b5b0492506004810190505b606483106124e857606483816124de576124dd6138d3565b5b0492506002810190505b600a83106124f7576001810190505b80915050919050565b600073ffffffffffffffffffffffffffffffffffffffff168273ffffffffffffffffffffffffffffffffffffffff16036125725760006040517f64a0ae92000000000000000000000000000000000000000000000000000000008152600401612569919061292b565b60405180910390fd5b600061258083836000611aa4565b9050600073ffffffffffffffffffffffffffffffffffffffff168173ffffffffffffffffffffffffffffffffffffffff16146125f45760006040517f73c6ac6e0000000000000000000000000000000000000000000000000000000081526004016125eb919061292b565b60405180910390fd5b505050565b60008073ffffffffffffffffffffffffffffffffffffffff168373ffffffffffffffffffffffffffffffffffffffff16141580156126b157508273ffffffffffffffffffffffffffffffffffffffff168473ffffffffffffffffffffffffffffffffffffffff1614806126725750612671848461185e565b5b806126b057508273ffffffffffffffffffffffffffffffffffffffff1661269883611a2f565b73ffffffffffffffffffffffffffffffffffffffff16145b5b90509392505050565b6040518061012001604052806000815260200160608152602001600081526020016000815260200160008152602001606081526020016060815260200160608152602001606081525090565b6000604051905090565b600080fd5b600080fd5b60007fffffffff0000000000000000000000000000000000000000000000000000000082169050919050565b61274f8161271a565b811461275a57600080fd5b50565b60008135905061276c81612746565b92915050565b60006020828403121561278857612787612710565b5b60006127968482850161275d565b91505092915050565b60008115159050919050565b6127b48161279f565b82525050565b60006020820190506127cf60008301846127ab565b92915050565b600081519050919050565b600082825260208201905092915050565b60005b8381101561280f5780820151818401526020810190506127f4565b60008484015250505050565b6000601f19601f8301169050919050565b6000612837826127d5565b61284181856127e0565b93506128518185602086016127f1565b61285a8161281b565b840191505092915050565b6000602082019050818103600083015261287f818461282c565b905092915050565b6000819050919050565b61289a81612887565b81146128a557600080fd5b50565b6000813590506128b781612891565b92915050565b6000602082840312156128d3576128d2612710565b5b60006128e1848285016128a8565b91505092915050565b600073ffffffffffffffffffffffffffffffffffffffff82169050919050565b6000612915826128ea565b9050919050565b6129258161290a565b82525050565b6000602082019050612940600083018461291c565b92915050565b61294f8161290a565b811461295a57600080fd5b50565b60008135905061296c81612946565b92915050565b6000806040838503121561298957612988612710565b5b60006129978582860161295d565b92505060206129a8858286016128a8565b9150509250929050565b600081519050919050565b600082825260208201905092915050565b6000819050602082019050919050565b6129e781612887565b82525050565b60006129f983836129de565b60208301905092915050565b6000602082019050919050565b6000612a1d826129b2565b612a2781856129bd565b9350612a32836129ce565b8060005b83811015612a63578151612a4a88826129ed565b9750612a5583612a05565b925050600181019050612a36565b5085935050505092915050565b60006020820190508181036000830152612a8a8184612a12565b905092915050565b612a9b81612887565b82525050565b6000602082019050612ab66000830184612a92565b92915050565b60008060408385031215612ad357612ad2612710565b5b6000612ae1858286016128a8565b9250506020612af2858286016128a8565b9150509250929050565b600080600060608486031215612b1557612b14612710565b5b6000612b238682870161295d565b9350506020612b348682870161295d565b9250506040612b45868287016128a8565b9150509250925092565b600061012082019050612b65600083018c612a92565b8181036020830152612b77818b61282c565b9050612b86604083018a612a92565b612b936060830189612a92565b612ba06080830188612a92565b81810360a0830152612bb2818761282c565b905081810360c0830152612bc6818661282c565b905081810360e0830152612bda818561282c565b9050818103610100830152612bef818461282c565b90509a9950505050505050505050565b600060208284031215612c1557612c14612710565b5b6000612c238482850161295d565b91505092915050565b600082825260208201905092915050565b6000612c48826127d5565b612c528185612c2c565b9350612c628185602086016127f1565b612c6b8161281b565b840191505092915050565b600061012083016000830151612c8f60008601826129de565b5060208301518482036020860152612ca78282612c3d565b9150506040830151612cbc60408601826129de565b506060830151612ccf60608601826129de565b506080830151612ce260808601826129de565b5060a083015184820360a0860152612cfa8282612c3d565b91505060c083015184820360c0860152612d148282612c3d565b91505060e083015184820360e0860152612d2e8282612c3d565b915050610100830151848203610100860152612d4a8282612c3d565b9150508091505092915050565b60006020820190508181036000830152612d718184612c76565b905092915050565b60008060408385031215612d9057612d8f612710565b5b6000612d9e858286016128a8565b9250506020612daf8582860161295d565b9150509250929050565b612dc28161279f565b8114612dcd57600080fd5b50565b600081359050612ddf81612db9565b92915050565b60008060408385031215612dfc57612dfb612710565b5b6000612e0a8582860161295d565b9250506020612e1b85828601612dd0565b9150509250929050565b600080fd5b600080fd5b7f4e487b7100000000000000000000000000000000000000000000000000000000600052604160045260246000fd5b612e678261281b565b810181811067ffffffffffffffff82111715612e8657612e85612e2f565b5b80604052505050565b6000612e99612706565b9050612ea58282612e5e565b919050565b600067ffffffffffffffff821115612ec557612ec4612e2f565b5b612ece8261281b565b9050602081019050919050565b82818337600083830152505050565b6000612efd612ef884612eaa565b612e8f565b905082815260208101848484011115612f1957612f18612e2a565b5b612f24848285612edb565b509392505050565b600082601f830112612f4157612f40612e25565b5b8135612f51848260208601612eea565b91505092915050565b600080600080600080600060e0888a031215612f7957612f78612710565b5b600088013567ffffffffffffffff811115612f9757612f96612715565b5b612fa38a828b01612f2c565b9750506020612fb48a828b016128a8565b9650506040612fc58a828b016128a8565b955050606088013567ffffffffffffffff811115612fe657612fe5612715565b5b612ff28a828b01612f2c565b945050608088013567ffffffffffffffff81111561301357613012612715565b5b61301f8a828b01612f2c565b93505060a088013567ffffffffffffffff8111156130405761303f612715565b5b61304c8a828b01612f2c565b92505060c088013567ffffffffffffffff81111561306d5761306c612715565b5b6130798a828b01612f2c565b91505092959891949750929550565b600067ffffffffffffffff8211156130a3576130a2612e2f565b5b6130ac8261281b565b9050602081019050919050565b60006130cc6130c784613088565b612e8f565b9050828152602081018484840111156130e8576130e7612e2a565b5b6130f3848285612edb565b509392505050565b600082601f8301126131105761310f612e25565b5b81356131208482602086016130b9565b91505092915050565b6000806000806080858703121561314357613142612710565b5b60006131518782880161295d565b94505060206131628782880161295d565b9350506040613173878288016128a8565b925050606085013567ffffffffffffffff81111561319457613193612715565b5b6131a0878288016130fb565b91505092959194509250565b600080604083850312156131c3576131c2612710565b5b60006131d18582860161295d565b92505060206131e28582860161295d565b9150509250929050565b7f4e487b7100000000000000000000000000000000000000000000000000000000600052602260045260246000fd5b6000600282049050600182168061323357607f821691505b602082108103613246576132456131ec565b5b50919050565b7f4e6f7420746865206f63636173696f6e2063726561746f720000000000000000600082015250565b60006132826018836127e0565b915061328d8261324c565b602082019050919050565b600060208201905081810360008301526132b181613275565b9050919050565b7f4e6f2066756e647320746f20776974686472617720666f722074686973206f6360008201527f636173696f6e0000000000000000000000000000000000000000000000000000602082015250565b60006133146026836127e0565b915061331f826132b8565b604082019050919050565b6000602082019050818103600083015261334381613307565b9050919050565b600081905092915050565b50565b600061336560008361334a565b915061337082613355565b600082019050919050565b600061338682613358565b9150819050919050565b7f5769746864726177616c206661696c6564000000000000000000000000000000600082015250565b60006133c66011836127e0565b91506133d182613390565b602082019050919050565b600060208201905081810360008301526133f5816133b9565b9050919050565b7f4e487b7100000000000000000000000000000000000000000000000000000000600052601160045260246000fd5b600061343682612887565b915061344183612887565b9250828203905081811115613459576134586133fc565b5b92915050565b600061346a82612887565b915061347583612887565b925082820190508082111561348d5761348c6133fc565b5b92915050565b600061349e82612887565b91507fffffffffffffffffffffffffffffffffffffffffffffffffffffffffffffffff82036134d0576134cf6133fc565b5b600182019050919050565b60006060820190506134f0600083018661291c565b6134fd6020830185612a92565b61350a604083018461291c565b949350505050565b60008190508160005260206000209050919050565b60006020601f8301049050919050565b600082821b905092915050565b6000600883026135747fffffffffffffffffffffffffffffffffffffffffffffffffffffffffffffffff82613537565b61357e8683613537565b95508019841693508086168417925050509392505050565b6000819050919050565b60006135bb6135b66135b184612887565b613596565b612887565b9050919050565b6000819050919050565b6135d5836135a0565b6135e96135e1826135c2565b848454613544565b825550505050565b600090565b6135fe6135f1565b6136098184846135cc565b505050565b5b8181101561362d576136226000826135f6565b60018101905061360f565b5050565b601f8211156136725761364381613512565b61364c84613527565b8101602085101561365b578190505b61366f61366785613527565b83018261360e565b50505b505050565b600082821c905092915050565b600061369560001984600802613677565b1980831691505092915050565b60006136ae8383613684565b9150826002028217905092915050565b6136c7826127d5565b67ffffffffffffffff8111156136e0576136df612e2f565b5b6136ea825461321b565b6136f5828285613631565b600060209050601f8311600181146137285760008415613716578287015190505b61372085826136a2565b865550613788565b601f19841661373686613512565b60005b8281101561375e57848901518255600182019150602085019450602081019050613739565b8683101561377b5784890151613777601f891682613684565b8355505b6001600288020188555050505b505050505050565b600081905092915050565b60006137a6826127d5565b6137b08185613790565b93506137c08185602086016127f1565b80840191505092915050565b60006137d8828561379b565b91506137e4828461379b565b91508190509392505050565b600081519050919050565b600082825260208201905092915050565b6000613817826137f0565b61382181856137fb565b93506138318185602086016127f1565b61383a8161281b565b840191505092915050565b600060808201905061385a600083018761291c565b613867602083018661291c565b6138746040830185612a92565b8181036060830152613886818461380c565b905095945050505050565b6000815190506138a081612746565b92915050565b6000602082840312156138bc576138bb612710565b5b60006138ca84828501613891565b91505092915050565b7f4e487b7100000000000000000000000000000000000000000000000000000000600052601260045260246000fd5b6000604082019050613917600083018561291c565b6139246020830184612a92565b939250505056fea26469706673582212208ba11d797caf1748f1a8989b7089be5f8fa229469e4127fc0e679c57d24768ff64736f6c634300081c0033",
  "linkReferences": {},
  "deployedLinkReferences": {}
}