{
  "_format": "hh-sol-artifact-1",
  "contractName": "TokenMaster",
  "sourceName": "contracts/TokenMaster.sol",
  "abi": [
    {
      "inputs": [
        {
          "internalType": "string",
          "name": "_name",
          "type": "string"
        },
        {
          "internalType": "string",
          "name": "_symbol",
          "type": "string"
        }
      ],
      "stateMutability": "nonpayable",
      "type": "constructor"
    },
    {
      "inputs": [
        {
          "internalType": "address",
          "name": "sender",
          "type": "address"
        },
        {
          "internalType": "uint256",
          "name": "tokenId",
          "type": "uint256"
        },
        {
          "internalType": "address",
          "name": "owner",
          "type": "address"
        }
      ],
      "name": "ERC721IncorrectOwner",
      "type": "error"
    },
    {
      "inputs": [
        {
          "internalType": "address",
          "name": "operator",
          "type": "address"
        },
        {
          "internalType": "uint256",
          "name": "tokenId",
          "type": "uint256"
        }
      ],
      "name": "ERC721InsufficientApproval",
      "type": "error"
    },
    {
      "inputs": [
        {
          "internalType": "address",
          "name": "approver",
          "type": "address"
        }
      ],
      "name": "ERC721InvalidApprover",
      "type": "error"
    },
    {
      "inputs": [
        {
          "internalType": "address",
          "name": "operator",
          "type": "address"
        }
      ],
      "name": "ERC721InvalidOperator",
      "type": "error"
    },
    {
      "inputs": [
        {
          "internalType": "address",
          "name": "owner",
          "type": "address"
        }
      ],
      "name": "ERC721InvalidOwner",
      "type": "error"
    },
    {
      "inputs": [
        {
          "internalType": "address",
          "name": "receiver",
          "type": "address"
        }
      ],
      "name": "ERC721InvalidReceiver",
      "type": "error"
    },
    {
      "inputs": [
        {
          "internalType": "address",
          "name": "sender",
          "type": "address"
        }
      ],
      "name": "ERC721InvalidSender",
      "type": "error"
    },
    {
      "inputs": [
        {
          "internalType": "uint256",
          "name": "tokenId",
          "type": "uint256"
        }
      ],
      "name": "ERC721NonexistentToken",
      "type": "error"
    },
    {
      "anonymous": false,
      "inputs": [
        {
          "indexed": true,
          "internalType": "address",
          "name": "owner",
          "type": "address"
        },
        {
          "indexed": true,
          "internalType": "address",
          "name": "approved",
          "type": "address"
        },
        {
          "indexed": true,
          "internalType": "uint256",
          "name": "tokenId",
          "type": "uint256"
        }
      ],
      "name": "Approval",
      "type": "event"
    },
    {
      "anonymous": false,
      "inputs": [
        {
          "indexed": true,
          "internalType": "address",
          "name": "owner",
          "type": "address"
        },
        {
          "indexed": true,
          "internalType": "address",
          "name": "operator",
          "type": "address"
        },
        {
          "indexed": false,
          "internalType": "bool",
          "name": "approved",
          "type": "bool"
        }
      ],
      "name": "ApprovalForAll",
      "type": "event"
    },
    {
      "anonymous": false,
      "inputs": [
        {
          "indexed": true,
          "internalType": "address",
          "name": "from",
          "type": "address"
        },
        {
          "indexed": true,
          "internalType": "address",
          "name": "to",
          "type": "address"
        },
        {
          "indexed": true,
          "internalType": "uint256",
          "name": "tokenId",
          "type": "uint256"
        }
      ],
      "name": "Transfer",
      "type": "event"
    },
    {
      "inputs": [
        {
          "internalType": "address",
          "name": "to",
          "type": "address"
        },
        {
          "internalType": "uint256",
          "name": "tokenId",
          "type": "uint256"
        }
      ],
      "name": "approve",
      "outputs": [],
      "stateMutability": "nonpayable",
      "type": "function"
    },
    {
      "inputs": [
        {
          "internalType": "address",
          "name": "owner",
          "type": "address"
        }
      ],
      "name": "balanceOf",
      "outputs": [
        {
          "internalType": "uint256",
          "name": "",
          "type": "uint256"
        }
      ],
      "stateMutability": "view",
      "type": "function"
    },
    {
      "inputs": [
        {
          "internalType": "uint256",
          "name": "tokenId",
          "type": "uint256"
        }
      ],
      "name": "getApproved",
      "outputs": [
        {
          "internalType": "address",
          "name": "",
          "type": "address"
        }
      ],
      "stateMutability": "view",
      "type": "function"
    },
    {
      "inputs": [
        {
          "internalType": "uint256",
          "name": "_id",
          "type": "uint256"
        }
      ],
      "name": "getOccasion",
      "outputs": [
        {
          "components": [
            {
              "internalType": "uint256",
              "name": "id",
              "type": "uint256"
            },
            {
              "internalType": "string",
              "name": "name",
              "type": "string"
            },
            {
              "internalType": "uint256",
              "name": "cost",
              "type": "uint256"
            },
            {
              "internalType": "uint256",
              "name": "tickets",
              "type": "uint256"
            },
            {
              "internalType": "uint256",
              "name": "maxTickets",
              "type": "uint256"
            },
            {
              "internalType": "string",
              "name": "date",
              "type": "string"
            },
            {
              "internalType": "string",
              "name": "time",
              "type": "string"
            },
            {
              "internalType": "string",
              "name": "location",
              "type": "string"
            }
          ],
          "internalType": "struct TokenMaster.Occasion",
          "name": "",
          "type": "tuple"
        }
      ],
      "stateMutability": "view",
      "type": "function"
    },
    {
      "inputs": [
        {
          "internalType": "uint256",
          "name": "_id",
          "type": "uint256"
        }
      ],
      "name": "getSeatsTaken",
      "outputs": [
        {
          "internalType": "uint256[]",
          "name": "",
          "type": "uint256[]"
        }
      ],
      "stateMutability": "view",
      "type": "function"
    },
    {
      "inputs": [
        {
          "internalType": "uint256",
          "name": "",
          "type": "uint256"
        },
        {
          "internalType": "address",
          "name": "",
          "type": "address"
        }
      ],
      "name": "hasBought",
      "outputs": [
        {
          "internalType": "bool",
          "name": "",
          "type": "bool"
        }
      ],
      "stateMutability": "view",
      "type": "function"
    },
    {
      "inputs": [
        {
          "internalType": "address",
          "name": "owner",
          "type": "address"
        },
        {
          "internalType": "address",
          "name": "operator",
          "type": "address"
        }
      ],
      "name": "isApprovedForAll",
      "outputs": [
        {
          "internalType": "bool",
          "name": "",
          "type": "bool"
        }
      ],
      "stateMutability": "view",
      "type": "function"
    },
    {
      "inputs": [
        {
          "internalType": "string",
          "name": "_name",
          "type": "string"
        },
        {
          "internalType": "uint256",
          "name": "_cost",
          "type": "uint256"
        },
        {
          "internalType": "uint256",
          "name": "_maxTickets",
          "type": "uint256"
        },
        {
          "internalType": "string",
          "name": "_date",
          "type": "string"
        },
        {
          "internalType": "string",
          "name": "_time",
          "type": "string"
        },
        {
          "internalType": "string",
          "name": "_location",
          "type": "string"
        }
      ],
      "name": "list",
      "outputs": [],
      "stateMutability": "nonpayable",
      "type": "function"
    },
    {
      "inputs": [
        {
          "internalType": "uint256",
          "name": "_id",
          "type": "uint256"
        },
        {
          "internalType": "uint256",
          "name": "_seat",
          "type": "uint256"
        }
      ],
      "name": "mint",
      "outputs": [],
      "stateMutability": "payable",
      "type": "function"
    },
    {
      "inputs": [],
      "name": "name",
      "outputs": [
        {
          "internalType": "string",
          "name": "",
          "type": "string"
        }
      ],
      "stateMutability": "view",
      "type": "function"
    },
    {
      "inputs": [],
      "name": "owner",
      "outputs": [
        {
          "internalType": "address",
          "name": "",
          "type": "address"
        }
      ],
      "stateMutability": "view",
      "type": "function"
    },
    {
      "inputs": [
        {
          "internalType": "uint256",
          "name": "tokenId",
          "type": "uint256"
        }
      ],
      "name": "ownerOf",
      "outputs": [
        {
          "internalType": "address",
          "name": "",
          "type": "address"
        }
      ],
      "stateMutability": "view",
      "type": "function"
    },
    {
      "inputs": [
        {
          "internalType": "address",
          "name": "from",
          "type": "address"
        },
        {
          "internalType": "address",
          "name": "to",
          "type": "address"
        },
        {
          "internalType": "uint256",
          "name": "tokenId",
          "type": "uint256"
        }
      ],
      "name": "safeTransferFrom",
      "outputs": [],
      "stateMutability": "nonpayable",
      "type": "function"
    },
    {
      "inputs": [
        {
          "internalType": "address",
          "name": "from",
          "type": "address"
        },
        {
          "internalType": "address",
          "name": "to",
          "type": "address"
        },
        {
          "internalType": "uint256",
          "name": "tokenId",
          "type": "uint256"
        },
        {
          "internalType": "bytes",
          "name": "data",
          "type": "bytes"
        }
      ],
      "name": "safeTransferFrom",
      "outputs": [],
      "stateMutability": "nonpayable",
      "type": "function"
    },
    {
      "inputs": [
        {
          "internalType": "uint256",
          "name": "",
          "type": "uint256"
        },
        {
          "internalType": "uint256",
          "name": "",
          "type": "uint256"
        }
      ],
      "name": "seatTaken",
      "outputs": [
        {
          "internalType": "address",
          "name": "",
          "type": "address"
        }
      ],
      "stateMutability": "view",
      "type": "function"
    },
    {
      "inputs": [
        {
          "internalType": "address",
          "name": "operator",
          "type": "address"
        },
        {
          "internalType": "bool",
          "name": "approved",
          "type": "bool"
        }
      ],
      "name": "setApprovalForAll",
      "outputs": [],
      "stateMutability": "nonpayable",
      "type": "function"
    },
    {
      "inputs": [
        {
          "internalType": "bytes4",
          "name": "interfaceId",
          "type": "bytes4"
        }
      ],
      "name": "supportsInterface",
      "outputs": [
        {
          "internalType": "bool",
          "name": "",
          "type": "bool"
        }
      ],
      "stateMutability": "view",
      "type": "function"
    },
    {
      "inputs": [],
      "name": "symbol",
      "outputs": [
        {
          "internalType": "string",
          "name": "",
          "type": "string"
        }
      ],
      "stateMutability": "view",
      "type": "function"
    },
    {
      "inputs": [
        {
          "internalType": "uint256",
          "name": "tokenId",
          "type": "uint256"
        }
      ],
      "name": "tokenURI",
      "outputs": [
        {
          "internalType": "string",
          "name": "",
          "type": "string"
        }
      ],
      "stateMutability": "view",
      "type": "function"
    },
    {
      "inputs": [],
      "name": "totalOccasions",
      "outputs": [
        {
          "internalType": "uint256",
          "name": "",
          "type": "uint256"
        }
      ],
      "stateMutability": "view",
      "type": "function"
    },
    {
      "inputs": [],
      "name": "totalSupply",
      "outputs": [
        {
          "internalType": "uint256",
          "name": "",
          "type": "uint256"
        }
      ],
      "stateMutability": "view",
      "type": "function"
    },
    {
      "inputs": [
        {
          "internalType": "address",
          "name": "from",
          "type": "address"
        },
        {
          "internalType": "address",
          "name": "to",
          "type": "address"
        },
        {
          "internalType": "uint256",
          "name": "tokenId",
          "type": "uint256"
        }
      ],
      "name": "transferFrom",
      "outputs": [],
      "stateMutability": "nonpayable",
      "type": "function"
    },
    {
      "inputs": [],
      "name": "withdraw",
      "outputs": [],
      "stateMutability": "nonpayable",
      "type": "function"
    }
  ],
  "bytecode": "0x608060405234801561001057600080fd5b5060405161363e38038061363e83398181016040528101906100329190610213565b8181816000908161004391906104ac565b50806001908161005391906104ac565b50505033600660006101000a81548173ffffffffffffffffffffffffffffffffffffffff021916908373ffffffffffffffffffffffffffffffffffffffff160217905550505061057e565b6000604051905090565b600080fd5b600080fd5b600080fd5b600080fd5b6000601f19601f8301169050919050565b7f4e487b7100000000000000000000000000000000000000000000000000000000600052604160045260246000fd5b610105826100bc565b810181811067ffffffffffffffff82111715610124576101236100cd565b5b80604052505050565b600061013761009e565b905061014382826100fc565b919050565b600067ffffffffffffffff821115610163576101626100cd565b5b61016c826100bc565b9050602081019050919050565b60005b8381101561019757808201518184015260208101905061017c565b60008484015250505050565b60006101b66101b184610148565b61012d565b9050828152602081018484840111156101d2576101d16100b7565b5b6101dd848285610179565b509392505050565b600082601f8301126101fa576101f96100b2565b5b815161020a8482602086016101a3565b91505092915050565b6000806040838503121561022a576102296100a8565b5b600083015167ffffffffffffffff811115610248576102476100ad565b5b610254858286016101e5565b925050602083015167ffffffffffffffff811115610275576102746100ad565b5b610281858286016101e5565b9150509250929050565b600081519050919050565b7f4e487b7100000000000000000000000000000000000000000000000000000000600052602260045260246000fd5b600060028204905060018216806102dd57607f821691505b6020821081036102f0576102ef610296565b5b50919050565b60008190508160005260206000209050919050565b60006020601f8301049050919050565b600082821b905092915050565b6000600883026103587fffffffffffffffffffffffffffffffffffffffffffffffffffffffffffffffff8261031b565b610362868361031b565b95508019841693508086168417925050509392505050565b6000819050919050565b6000819050919050565b60006103a96103a461039f8461037a565b610384565b61037a565b9050919050565b6000819050919050565b6103c38361038e565b6103d76103cf826103b0565b848454610328565b825550505050565b600090565b6103ec6103df565b6103f78184846103ba565b505050565b5b8181101561041b576104106000826103e4565b6001810190506103fd565b5050565b601f82111561046057610431816102f6565b61043a8461030b565b81016020851015610449578190505b61045d6104558561030b565b8301826103fc565b50505b505050565b600082821c905092915050565b600061048360001984600802610465565b1980831691505092915050565b600061049c8383610472565b9150826002028217905092915050565b6104b58261028b565b67ffffffffffffffff8111156104ce576104cd6100cd565b5b6104d882546102c5565b6104e382828561041f565b600060209050601f8311600181146105165760008415610504578287015190505b61050e8582610490565b865550610576565b601f198416610524866102f6565b60005b8281101561054c57848901518255600182019150602085019450602081019050610527565b868310156105695784890151610565601f891682610472565b8355505b6001600288020188555050505b505050505050565b6130b18061058d6000396000f3fe6080604052600436106101405760003560e01c806370a08231116100b65780639cb04aef1161006f5780639cb04aef14610461578063a22cb4651461049e578063af296da1146104c7578063b88d4fde14610504578063c87b56dd1461052d578063e985e9c51461056a57610140565b806370a082311461033d57806374bc86561461037a5780638da5cb5b146103b7578063953865c1146103e257806395d89b411461040d5780639a382f0f1461043857610140565b806318160ddd1161010857806318160ddd146102505780631b2ef1ca1461027b57806323b872dd146102975780633ccfd60b146102c057806342842e0e146102d75780636352211e1461030057610140565b806301ffc9a71461014557806306fdde0314610182578063081812fc146101ad578063095ea7b3146101ea5780630ef7ec7414610213575b600080fd5b34801561015157600080fd5b5061016c6004803603810190610167919061215d565b6105a7565b60405161017991906121a5565b60405180910390f35b34801561018e57600080fd5b50610197610689565b6040516101a49190612250565b60405180910390f35b3480156101b957600080fd5b506101d460048036038101906101cf91906122a8565b61071b565b6040516101e19190612316565b60405180910390f35b3480156101f657600080fd5b50610211600480360381019061020c919061235d565b610737565b005b34801561021f57600080fd5b5061023a600480360381019061023591906122a8565b61074d565b604051610247919061245b565b60405180910390f35b34801561025c57600080fd5b506102656107b8565b604051610272919061248c565b60405180910390f35b610295600480360381019061029091906124a7565b6107be565b005b3480156102a357600080fd5b506102be60048036038101906102b991906124e7565b6109f9565b005b3480156102cc57600080fd5b506102d5610afb565b005b3480156102e357600080fd5b506102fe60048036038101906102f991906124e7565b610bf0565b005b34801561030c57600080fd5b50610327600480360381019061032291906122a8565b610c10565b6040516103349190612316565b60405180910390f35b34801561034957600080fd5b50610364600480360381019061035f919061253a565b610c22565b604051610371919061248c565b60405180910390f35b34801561038657600080fd5b506103a1600480360381019061039c91906122a8565b610cdc565b6040516103ae9190612676565b60405180910390f35b3480156103c357600080fd5b506103cc610f7a565b6040516103d99190612316565b60405180910390f35b3480156103ee57600080fd5b506103f7610fa0565b604051610404919061248c565b60405180910390f35b34801561041957600080fd5b50610422610fa6565b60405161042f9190612250565b60405180910390f35b34801561044457600080fd5b5061045f600480360381019061045a91906127cd565b611038565b005b34801561046d57600080fd5b50610488600480360381019061048391906128ca565b611186565b60405161049591906121a5565b60405180910390f35b3480156104aa57600080fd5b506104c560048036038101906104c09190612936565b6111b5565b005b3480156104d357600080fd5b506104ee60048036038101906104e991906124a7565b6111cb565b6040516104fb9190612316565b60405180910390f35b34801561051057600080fd5b5061052b60048036038101906105269190612a17565b61120d565b005b34801561053957600080fd5b50610554600480360381019061054f91906122a8565b611232565b6040516105619190612250565b60405180910390f35b34801561057657600080fd5b50610591600480360381019061058c9190612a9a565b61129b565b60405161059e91906121a5565b60405180910390f35b60007f80ac58cd000000000000000000000000000000000000000000000000000000007bffffffffffffffffffffffffffffffffffffffffffffffffffffffff1916827bffffffffffffffffffffffffffffffffffffffffffffffffffffffff1916148061067257507f5b5e139f000000000000000000000000000000000000000000000000000000007bffffffffffffffffffffffffffffffffffffffffffffffffffffffff1916827bffffffffffffffffffffffffffffffffffffffffffffffffffffffff1916145b8061068257506106818261132f565b5b9050919050565b60606000805461069890612b09565b80601f01602080910402602001604051908101604052809291908181526020018280546106c490612b09565b80156107115780601f106106e657610100808354040283529160200191610711565b820191906000526020600020905b8154815290600101906020018083116106f457829003601f168201915b5050505050905090565b600061072682611399565b5061073082611421565b9050919050565b610749828261074461145e565b611466565b5050565b6060600c60008381526020019081526020016000208054806020026020016040519081016040528092919081815260200182805480156107ac57602002820191906000526020600020905b815481526020019060010190808311610798575b50505050509050919050565b60085481565b600082036107cb57600080fd5b6007548211156107da57600080fd5b60096000838152602001908152602001600020600201543410156107fd57600080fd5b600073ffffffffffffffffffffffffffffffffffffffff16600b6000848152602001908152602001600020600083815260200190815260200160002060009054906101000a900473ffffffffffffffffffffffffffffffffffffffff1673ffffffffffffffffffffffffffffffffffffffff161461087a57600080fd5b600960008381526020019081526020016000206004015481111561089d57600080fd5b60016009600084815260200190815260200160002060030160008282546108c49190612b69565b925050819055506001600a600084815260200190815260200160002060003373ffffffffffffffffffffffffffffffffffffffff1673ffffffffffffffffffffffffffffffffffffffff16815260200190815260200160002060006101000a81548160ff02191690831515021790555033600b6000848152602001908152602001600020600083815260200190815260200160002060006101000a81548173ffffffffffffffffffffffffffffffffffffffff021916908373ffffffffffffffffffffffffffffffffffffffff160217905550600c6000838152602001908152602001600020819080600181540180825580915050600190039060005260206000200160009091909190915055600860008154809291906109e490612b9d565b91905055506109f533600854611478565b5050565b600073ffffffffffffffffffffffffffffffffffffffff168273ffffffffffffffffffffffffffffffffffffffff1603610a6b5760006040517f64a0ae92000000000000000000000000000000000000000000000000000000008152600401610a629190612316565b60405180910390fd5b6000610a7f8383610a7a61145e565b611496565b90508373ffffffffffffffffffffffffffffffffffffffff168173ffffffffffffffffffffffffffffffffffffffff1614610af5578382826040517f64283d7b000000000000000000000000000000000000000000000000000000008152600401610aec93929190612be5565b60405180910390fd5b50505050565b600660009054906101000a900473ffffffffffffffffffffffffffffffffffffffff1673ffffffffffffffffffffffffffffffffffffffff163373ffffffffffffffffffffffffffffffffffffffff1614610b5557600080fd5b6000600660009054906101000a900473ffffffffffffffffffffffffffffffffffffffff1673ffffffffffffffffffffffffffffffffffffffff1647604051610b9d90612c4d565b60006040518083038185875af1925050503d8060008114610bda576040519150601f19603f3d011682016040523d82523d6000602084013e610bdf565b606091505b5050905080610bed57600080fd5b50565b610c0b8383836040518060200160405280600081525061120d565b505050565b6000610c1b82611399565b9050919050565b60008073ffffffffffffffffffffffffffffffffffffffff168273ffffffffffffffffffffffffffffffffffffffff1603610c955760006040517f89c62b64000000000000000000000000000000000000000000000000000000008152600401610c8c9190612316565b60405180910390fd5b600360008373ffffffffffffffffffffffffffffffffffffffff1673ffffffffffffffffffffffffffffffffffffffff168152602001908152602001600020549050919050565b610ce46120ac565b600960008381526020019081526020016000206040518061010001604052908160008201548152602001600182018054610d1d90612b09565b80601f0160208091040260200160405190810160405280929190818152602001828054610d4990612b09565b8015610d965780601f10610d6b57610100808354040283529160200191610d96565b820191906000526020600020905b815481529060010190602001808311610d7957829003601f168201915b50505050508152602001600282015481526020016003820154815260200160048201548152602001600582018054610dcd90612b09565b80601f0160208091040260200160405190810160405280929190818152602001828054610df990612b09565b8015610e465780601f10610e1b57610100808354040283529160200191610e46565b820191906000526020600020905b815481529060010190602001808311610e2957829003601f168201915b50505050508152602001600682018054610e5f90612b09565b80601f0160208091040260200160405190810160405280929190818152602001828054610e8b90612b09565b8015610ed85780601f10610ead57610100808354040283529160200191610ed8565b820191906000526020600020905b815481529060010190602001808311610ebb57829003601f168201915b50505050508152602001600782018054610ef190612b09565b80601f0160208091040260200160405190810160405280929190818152602001828054610f1d90612b09565b8015610f6a5780601f10610f3f57610100808354040283529160200191610f6a565b820191906000526020600020905b815481529060010190602001808311610f4d57829003601f168201915b5050505050815250509050919050565b600660009054906101000a900473ffffffffffffffffffffffffffffffffffffffff1681565b60075481565b606060018054610fb590612b09565b80601f0160208091040260200160405190810160405280929190818152602001828054610fe190612b09565b801561102e5780601f106110035761010080835404028352916020019161102e565b820191906000526020600020905b81548152906001019060200180831161101157829003601f168201915b5050505050905090565b600660009054906101000a900473ffffffffffffffffffffffffffffffffffffffff1673ffffffffffffffffffffffffffffffffffffffff163373ffffffffffffffffffffffffffffffffffffffff161461109257600080fd5b600760008154809291906110a590612b9d565b919050555060405180610100016040528060075481526020018781526020018681526020018581526020018581526020018481526020018381526020018281525060096000600754815260200190815260200160002060008201518160000155602082015181600101908161111a9190612e0e565b5060408201518160020155606082015181600301556080820151816004015560a082015181600501908161114e9190612e0e565b5060c08201518160060190816111649190612e0e565b5060e082015181600701908161117a9190612e0e565b50905050505050505050565b600a6020528160005260406000206020528060005260406000206000915091509054906101000a900460ff1681565b6111c76111c061145e565b83836116b0565b5050565b600b6020528160005260406000206020528060005260406000206000915091509054906101000a900473ffffffffffffffffffffffffffffffffffffffff1681565b6112188484846109f9565b61122c61122361145e565b8585858561181f565b50505050565b606061123d82611399565b5060006112486119d0565b905060008151116112685760405180602001604052806000815250611293565b80611272846119e7565b604051602001611283929190612f1c565b6040516020818303038152906040525b915050919050565b6000600560008473ffffffffffffffffffffffffffffffffffffffff1673ffffffffffffffffffffffffffffffffffffffff16815260200190815260200160002060008373ffffffffffffffffffffffffffffffffffffffff1673ffffffffffffffffffffffffffffffffffffffff16815260200190815260200160002060009054906101000a900460ff16905092915050565b60007f01ffc9a7000000000000000000000000000000000000000000000000000000007bffffffffffffffffffffffffffffffffffffffffffffffffffffffff1916827bffffffffffffffffffffffffffffffffffffffffffffffffffffffff1916149050919050565b6000806113a583611ab5565b9050600073ffffffffffffffffffffffffffffffffffffffff168173ffffffffffffffffffffffffffffffffffffffff160361141857826040517f7e27328900000000000000000000000000000000000000000000000000000000815260040161140f919061248c565b60405180910390fd5b80915050919050565b60006004600083815260200190815260200160002060009054906101000a900473ffffffffffffffffffffffffffffffffffffffff169050919050565b600033905090565b6114738383836001611af2565b505050565b611492828260405180602001604052806000815250611cb7565b5050565b6000806114a284611ab5565b9050600073ffffffffffffffffffffffffffffffffffffffff168373ffffffffffffffffffffffffffffffffffffffff16146114e4576114e3818486611cdb565b5b600073ffffffffffffffffffffffffffffffffffffffff168173ffffffffffffffffffffffffffffffffffffffff161461157557611526600085600080611af2565b6001600360008373ffffffffffffffffffffffffffffffffffffffff1673ffffffffffffffffffffffffffffffffffffffff168152602001908152602001600020600082825403925050819055505b600073ffffffffffffffffffffffffffffffffffffffff168573ffffffffffffffffffffffffffffffffffffffff16146115f8576001600360008773ffffffffffffffffffffffffffffffffffffffff1673ffffffffffffffffffffffffffffffffffffffff168152602001908152602001600020600082825401925050819055505b846002600086815260200190815260200160002060006101000a81548173ffffffffffffffffffffffffffffffffffffffff021916908373ffffffffffffffffffffffffffffffffffffffff160217905550838573ffffffffffffffffffffffffffffffffffffffff168273ffffffffffffffffffffffffffffffffffffffff167fddf252ad1be2c89b69c2b068fc378daa952ba7f163c4a11628f55a4df523b3ef60405160405180910390a4809150509392505050565b600073ffffffffffffffffffffffffffffffffffffffff168273ffffffffffffffffffffffffffffffffffffffff160361172157816040517f5b08ba180000000000000000000000000000000000000000000000000000000081526004016117189190612316565b60405180910390fd5b80600560008573ffffffffffffffffffffffffffffffffffffffff1673ffffffffffffffffffffffffffffffffffffffff16815260200190815260200160002060008473ffffffffffffffffffffffffffffffffffffffff1673ffffffffffffffffffffffffffffffffffffffff16815260200190815260200160002060006101000a81548160ff0219169083151502179055508173ffffffffffffffffffffffffffffffffffffffff168373ffffffffffffffffffffffffffffffffffffffff167f17307eab39ab6107e8899845ad3d59bd9653f200f220920489ca2b5937696c318360405161181291906121a5565b60405180910390a3505050565b60008373ffffffffffffffffffffffffffffffffffffffff163b11156119c9578273ffffffffffffffffffffffffffffffffffffffff1663150b7a02868685856040518563ffffffff1660e01b815260040161187e9493929190612f95565b6020604051808303816000875af19250505080156118ba57506040513d601f19601f820116820180604052508101906118b79190612ff6565b60015b61193e573d80600081146118ea576040519150601f19603f3d011682016040523d82523d6000602084013e6118ef565b606091505b50600081510361193657836040517f64a0ae9200000000000000000000000000000000000000000000000000000000815260040161192d9190612316565b60405180910390fd5b805181602001fd5b63150b7a0260e01b7bffffffffffffffffffffffffffffffffffffffffffffffffffffffff1916817bffffffffffffffffffffffffffffffffffffffffffffffffffffffff1916146119c757836040517f64a0ae920000000000000000000000000000000000000000000000000000000081526004016119be9190612316565b60405180910390fd5b505b5050505050565b606060405180602001604052806000815250905090565b6060600060016119f684611d9f565b01905060008167ffffffffffffffff811115611a1557611a146126a2565b5b6040519080825280601f01601f191660200182016040528015611a475781602001600182028036833780820191505090505b509050600082602001820190505b600115611aaa578080600190039150507f3031323334353637383961626364656600000000000000000000000000000000600a86061a8153600a8581611a9e57611a9d613023565b5b04945060008503611a55575b819350505050919050565b60006002600083815260200190815260200160002060009054906101000a900473ffffffffffffffffffffffffffffffffffffffff169050919050565b8080611b2b5750600073ffffffffffffffffffffffffffffffffffffffff168273ffffffffffffffffffffffffffffffffffffffff1614155b15611c5f576000611b3b84611399565b9050600073ffffffffffffffffffffffffffffffffffffffff168373ffffffffffffffffffffffffffffffffffffffff1614158015611ba657508273ffffffffffffffffffffffffffffffffffffffff168173ffffffffffffffffffffffffffffffffffffffff1614155b8015611bb95750611bb7818461129b565b155b15611bfb57826040517fa9fbf51f000000000000000000000000000000000000000000000000000000008152600401611bf29190612316565b60405180910390fd5b8115611c5d57838573ffffffffffffffffffffffffffffffffffffffff168273ffffffffffffffffffffffffffffffffffffffff167f8c5be1e5ebec7d5bd14f71427d1e84f3dd0314c0f7b2291e5b200ac8c7c3b92560405160405180910390a45b505b836004600085815260200190815260200160002060006101000a81548173ffffffffffffffffffffffffffffffffffffffff021916908373ffffffffffffffffffffffffffffffffffffffff16021790555050505050565b611cc18383611ef2565b611cd6611ccc61145e565b600085858561181f565b505050565b611ce6838383611feb565b611d9a57600073ffffffffffffffffffffffffffffffffffffffff168373ffffffffffffffffffffffffffffffffffffffff1603611d5b57806040517f7e273289000000000000000000000000000000000000000000000000000000008152600401611d52919061248c565b60405180910390fd5b81816040517f177e802f000000000000000000000000000000000000000000000000000000008152600401611d91929190613052565b60405180910390fd5b505050565b600080600090507a184f03e93ff9f4daa797ed6e38ed64bf6a1f0100000000000000008310611dfd577a184f03e93ff9f4daa797ed6e38ed64bf6a1f0100000000000000008381611df357611df2613023565b5b0492506040810190505b6d04ee2d6d415b85acef81000000008310611e3a576d04ee2d6d415b85acef81000000008381611e3057611e2f613023565b5b0492506020810190505b662386f26fc100008310611e6957662386f26fc100008381611e5f57611e5e613023565b5b0492506010810190505b6305f5e1008310611e92576305f5e1008381611e8857611e87613023565b5b0492506008810190505b6127108310611eb7576127108381611ead57611eac613023565b5b0492506004810190505b60648310611eda5760648381611ed057611ecf613023565b5b0492506002810190505b600a8310611ee9576001810190505b80915050919050565b600073ffffffffffffffffffffffffffffffffffffffff168273ffffffffffffffffffffffffffffffffffffffff1603611f645760006040517f64a0ae92000000000000000000000000000000000000000000000000000000008152600401611f5b9190612316565b60405180910390fd5b6000611f7283836000611496565b9050600073ffffffffffffffffffffffffffffffffffffffff168173ffffffffffffffffffffffffffffffffffffffff1614611fe65760006040517f73c6ac6e000000000000000000000000000000000000000000000000000000008152600401611fdd9190612316565b60405180910390fd5b505050565b60008073ffffffffffffffffffffffffffffffffffffffff168373ffffffffffffffffffffffffffffffffffffffff16141580156120a357508273ffffffffffffffffffffffffffffffffffffffff168473ffffffffffffffffffffffffffffffffffffffff1614806120645750612063848461129b565b5b806120a257508273ffffffffffffffffffffffffffffffffffffffff1661208a83611421565b73ffffffffffffffffffffffffffffffffffffffff16145b5b90509392505050565b60405180610100016040528060008152602001606081526020016000815260200160008152602001600081526020016060815260200160608152602001606081525090565b6000604051905090565b600080fd5b600080fd5b60007fffffffff0000000000000000000000000000000000000000000000000000000082169050919050565b61213a81612105565b811461214557600080fd5b50565b60008135905061215781612131565b92915050565b600060208284031215612173576121726120fb565b5b600061218184828501612148565b91505092915050565b60008115159050919050565b61219f8161218a565b82525050565b60006020820190506121ba6000830184612196565b92915050565b600081519050919050565b600082825260208201905092915050565b60005b838110156121fa5780820151818401526020810190506121df565b60008484015250505050565b6000601f19601f8301169050919050565b6000612222826121c0565b61222c81856121cb565b935061223c8185602086016121dc565b61224581612206565b840191505092915050565b6000602082019050818103600083015261226a8184612217565b905092915050565b6000819050919050565b61228581612272565b811461229057600080fd5b50565b6000813590506122a28161227c565b92915050565b6000602082840312156122be576122bd6120fb565b5b60006122cc84828501612293565b91505092915050565b600073ffffffffffffffffffffffffffffffffffffffff82169050919050565b6000612300826122d5565b9050919050565b612310816122f5565b82525050565b600060208201905061232b6000830184612307565b92915050565b61233a816122f5565b811461234557600080fd5b50565b60008135905061235781612331565b92915050565b60008060408385031215612374576123736120fb565b5b600061238285828601612348565b925050602061239385828601612293565b9150509250929050565b600081519050919050565b600082825260208201905092915050565b6000819050602082019050919050565b6123d281612272565b82525050565b60006123e483836123c9565b60208301905092915050565b6000602082019050919050565b60006124088261239d565b61241281856123a8565b935061241d836123b9565b8060005b8381101561244e57815161243588826123d8565b9750612440836123f0565b925050600181019050612421565b5085935050505092915050565b6000602082019050818103600083015261247581846123fd565b905092915050565b61248681612272565b82525050565b60006020820190506124a1600083018461247d565b92915050565b600080604083850312156124be576124bd6120fb565b5b60006124cc85828601612293565b92505060206124dd85828601612293565b9150509250929050565b600080600060608486031215612500576124ff6120fb565b5b600061250e86828701612348565b935050602061251f86828701612348565b925050604061253086828701612293565b9150509250925092565b6000602082840312156125505761254f6120fb565b5b600061255e84828501612348565b91505092915050565b600082825260208201905092915050565b6000612583826121c0565b61258d8185612567565b935061259d8185602086016121dc565b6125a681612206565b840191505092915050565b6000610100830160008301516125ca60008601826123c9565b50602083015184820360208601526125e28282612578565b91505060408301516125f760408601826123c9565b50606083015161260a60608601826123c9565b50608083015161261d60808601826123c9565b5060a083015184820360a08601526126358282612578565b91505060c083015184820360c086015261264f8282612578565b91505060e083015184820360e08601526126698282612578565b9150508091505092915050565b6000602082019050818103600083015261269081846125b1565b905092915050565b600080fd5b600080fd5b7f4e487b7100000000000000000000000000000000000000000000000000000000600052604160045260246000fd5b6126da82612206565b810181811067ffffffffffffffff821117156126f9576126f86126a2565b5b80604052505050565b600061270c6120f1565b905061271882826126d1565b919050565b600067ffffffffffffffff821115612738576127376126a2565b5b61274182612206565b9050602081019050919050565b82818337600083830152505050565b600061277061276b8461271d565b612702565b90508281526020810184848401111561278c5761278b61269d565b5b61279784828561274e565b509392505050565b600082601f8301126127b4576127b3612698565b5b81356127c484826020860161275d565b91505092915050565b60008060008060008060c087890312156127ea576127e96120fb565b5b600087013567ffffffffffffffff81111561280857612807612100565b5b61281489828a0161279f565b965050602061282589828a01612293565b955050604061283689828a01612293565b945050606087013567ffffffffffffffff81111561285757612856612100565b5b61286389828a0161279f565b935050608087013567ffffffffffffffff81111561288457612883612100565b5b61289089828a0161279f565b92505060a087013567ffffffffffffffff8111156128b1576128b0612100565b5b6128bd89828a0161279f565b9150509295509295509295565b600080604083850312156128e1576128e06120fb565b5b60006128ef85828601612293565b925050602061290085828601612348565b9150509250929050565b6129138161218a565b811461291e57600080fd5b50565b6000813590506129308161290a565b92915050565b6000806040838503121561294d5761294c6120fb565b5b600061295b85828601612348565b925050602061296c85828601612921565b9150509250929050565b600067ffffffffffffffff821115612991576129906126a2565b5b61299a82612206565b9050602081019050919050565b60006129ba6129b584612976565b612702565b9050828152602081018484840111156129d6576129d561269d565b5b6129e184828561274e565b509392505050565b600082601f8301126129fe576129fd612698565b5b8135612a0e8482602086016129a7565b91505092915050565b60008060008060808587031215612a3157612a306120fb565b5b6000612a3f87828801612348565b9450506020612a5087828801612348565b9350506040612a6187828801612293565b925050606085013567ffffffffffffffff811115612a8257612a81612100565b5b612a8e878288016129e9565b91505092959194509250565b60008060408385031215612ab157612ab06120fb565b5b6000612abf85828601612348565b9250506020612ad085828601612348565b9150509250929050565b7f4e487b7100000000000000000000000000000000000000000000000000000000600052602260045260246000fd5b60006002820490506001821680612b2157607f821691505b602082108103612b3457612b33612ada565b5b50919050565b7f4e487b7100000000000000000000000000000000000000000000000000000000600052601160045260246000fd5b6000612b7482612272565b9150612b7f83612272565b9250828203905081811115612b9757612b96612b3a565b5b92915050565b6000612ba882612272565b91507fffffffffffffffffffffffffffffffffffffffffffffffffffffffffffffffff8203612bda57612bd9612b3a565b5b600182019050919050565b6000606082019050612bfa6000830186612307565b612c07602083018561247d565b612c146040830184612307565b949350505050565b600081905092915050565b50565b6000612c37600083612c1c565b9150612c4282612c27565b600082019050919050565b6000612c5882612c2a565b9150819050919050565b60008190508160005260206000209050919050565b60006020601f8301049050919050565b600082821b905092915050565b600060088302612cc47fffffffffffffffffffffffffffffffffffffffffffffffffffffffffffffffff82612c87565b612cce8683612c87565b95508019841693508086168417925050509392505050565b6000819050919050565b6000612d0b612d06612d0184612272565b612ce6565b612272565b9050919050565b6000819050919050565b612d2583612cf0565b612d39612d3182612d12565b848454612c94565b825550505050565b600090565b612d4e612d41565b612d59818484612d1c565b505050565b5b81811015612d7d57612d72600082612d46565b600181019050612d5f565b5050565b601f821115612dc257612d9381612c62565b612d9c84612c77565b81016020851015612dab578190505b612dbf612db785612c77565b830182612d5e565b50505b505050565b600082821c905092915050565b6000612de560001984600802612dc7565b1980831691505092915050565b6000612dfe8383612dd4565b9150826002028217905092915050565b612e17826121c0565b67ffffffffffffffff811115612e3057612e2f6126a2565b5b612e3a8254612b09565b612e45828285612d81565b600060209050601f831160018114612e785760008415612e66578287015190505b612e708582612df2565b865550612ed8565b601f198416612e8686612c62565b60005b82811015612eae57848901518255600182019150602085019450602081019050612e89565b86831015612ecb5784890151612ec7601f891682612dd4565b8355505b6001600288020188555050505b505050505050565b600081905092915050565b6000612ef6826121c0565b612f008185612ee0565b9350612f108185602086016121dc565b80840191505092915050565b6000612f288285612eeb565b9150612f348284612eeb565b91508190509392505050565b600081519050919050565b600082825260208201905092915050565b6000612f6782612f40565b612f718185612f4b565b9350612f818185602086016121dc565b612f8a81612206565b840191505092915050565b6000608082019050612faa6000830187612307565b612fb76020830186612307565b612fc4604083018561247d565b8181036060830152612fd68184612f5c565b905095945050505050565b600081519050612ff081612131565b92915050565b60006020828403121561300c5761300b6120fb565b5b600061301a84828501612fe1565b91505092915050565b7f4e487b7100000000000000000000000000000000000000000000000000000000600052601260045260246000fd5b60006040820190506130676000830185612307565b613074602083018461247d565b939250505056fea26469706673582212201365859b1fe1cd926e9bb5a87e04a9ef6683f3c1cffa660bca7698941e1271bd64736f6c634300081c0033",
  "linkReferences": {},
  "deployedLinkReferences": {}
}